{
  "contractName": "Tickets",
  "abi": [
    {
      "constant": true,
      "inputs": [
        {
          "name": "",
          "type": "uint256"
        }
      ],
      "name": "tickets",
      "outputs": [
        {
          "name": "price",
          "type": "uint256"
        },
        {
          "name": "isAvailaible",
          "type": "bool"
        },
        {
          "name": "owner",
          "type": "address"
        }
      ],
      "payable": false,
      "stateMutability": "view",
      "type": "function"
    },
    {
      "constant": true,
      "inputs": [],
      "name": "owner",
      "outputs": [
        {
          "name": "",
          "type": "address"
        }
      ],
      "payable": false,
      "stateMutability": "view",
      "type": "function"
    },
    {
      "inputs": [],
      "payable": false,
      "stateMutability": "nonpayable",
      "type": "constructor"
    },
    {
      "constant": false,
      "inputs": [
        {
          "name": "ticketId",
          "type": "uint256"
        }
      ],
      "name": "buyTicket",
      "outputs": [],
      "payable": true,
      "stateMutability": "payable",
      "type": "function"
    }
  ],
  "bytecode": "0x6080604052336000806101000a81548173ffffffffffffffffffffffffffffffffffffffff021916908373ffffffffffffffffffffffffffffffffffffffff16021790555034801561005057600080fd5b5060008090505b600a81101561011457600180600083815260200190815260200160002060010160006101000a81548160ff02191690831515021790555067016345785d8a0000600160008381526020019081526020016000206000018190555060006001600083815260200190815260200160002060010160016101000a81548173ffffffffffffffffffffffffffffffffffffffff021916908373ffffffffffffffffffffffffffffffffffffffff1602179055508080600101915050610057565b506104b5806101246000396000f3fe608060405260043610610051576000357c01000000000000000000000000000000000000000000000000000000009004806350b447121461005657806367dd74ca146100e35780638da5cb5b14610111575b600080fd5b34801561006257600080fd5b5061008f6004803603602081101561007957600080fd5b8101908080359060200190929190505050610168565b60405180848152602001831515151581526020018273ffffffffffffffffffffffffffffffffffffffff1673ffffffffffffffffffffffffffffffffffffffff168152602001935050505060405180910390f35b61010f600480360360208110156100f957600080fd5b81019080803590602001909291905050506101bf565b005b34801561011d57600080fd5b50610126610464565b604051808273ffffffffffffffffffffffffffffffffffffffff1673ffffffffffffffffffffffffffffffffffffffff16815260200191505060405180910390f35b60016020528060005260406000206000915090508060000154908060010160009054906101000a900460ff16908060010160019054906101000a900473ffffffffffffffffffffffffffffffffffffffff16905083565b600a81101515610237576040517f08c379a000000000000000000000000000000000000000000000000000000000815260040180806020018281038252600e8152602001807f496e76616c6964207469636b657400000000000000000000000000000000000081525060200191505060405180910390fd5b6001600082815260200190815260200160002060010160009054906101000a900460ff1615156102f5576040517f08c379a00000000000000000000000000000000000000000000000000000000081526004018080602001828103825260248152602001807f536f72727920746865207469636b657420697320616c726561647920736f6c6481526020017f206f75740000000000000000000000000000000000000000000000000000000081525060400191505060405180910390fd5b67016345785d8a00003410151515610375576040517f08c379a000000000000000000000000000000000000000000000000000000000815260040180806020018281038252600e8152602001807f496e76616c696420616d6f756e7400000000000000000000000000000000000081525060200191505060405180910390fd5b6000809054906101000a900473ffffffffffffffffffffffffffffffffffffffff1673ffffffffffffffffffffffffffffffffffffffff166108fc349081150290604051600060405180830381858888f193505050501580156103dc573d6000803e3d6000fd5b50336001600083815260200190815260200160002060010160016101000a81548173ffffffffffffffffffffffffffffffffffffffff021916908373ffffffffffffffffffffffffffffffffffffffff16021790555060006001600083815260200190815260200160002060010160006101000a81548160ff02191690831515021790555050565b6000809054906101000a900473ffffffffffffffffffffffffffffffffffffffff168156fea165627a7a72305820f107e1382e300acc73236e3d2bf2e27f7175fc3213c381aaf8e391aa2c7231d00029",
  "source": "// SPDX-License-Identifier: MIT\r\npragma solidity >=0.4.22 <9.0.0;\r\n\r\n\r\ncontract Tickets{\r\n    address payable public owner=msg.sender;\r\n    struct Ticket{\r\n        uint256 price;\r\n        bool isAvailaible;\r\n        address owner;\r\n    }\r\n    mapping(uint256=>Ticket) public tickets;\r\n    constructor() public\r\n    {\r\n        for(uint256 i=0;i<10;i++)\r\n        {\r\n            tickets[i].isAvailaible = true;\r\n            tickets[i].price=1e17; //0.1ETH\r\n            tickets[i].owner=address(0x0);\r\n        }\r\n    }\r\n    function buyTicket(uint256 ticketId) public payable\r\n    {\r\n        require(ticketId<10,\"Invalid ticket\");\r\n        require(tickets[ticketId].isAvailaible,\"Sorry the ticket is already sold out\");\r\n        require(msg.value>=1e17,\"Invalid amount\");\r\n        owner.transfer(msg.value);\r\n        tickets[ticketId].owner=msg.sender;\r\n        tickets[ticketId].isAvailaible=false;\r\n    }\r\n}",
  "sourcePath": "C:\\Users\\asus\\Desktop\\Blockchain\\Tickets\\contracts\\Tickets.sol",
  "compiler": {
    "name": "solc",
    "version": "0.5.1+commit.c8a2cb62.Emscripten.clang"
  },
  "schemaVersion": "3.4.16",
  "updatedAt": "2023-10-17T14:15:03.835Z",
  "networkType": "ethereum",
  "devdoc": {
    "methods": {}
  },
  "userdoc": {
    "methods": {}
  }
}